:100000000C9465000C948D000C948D000C948D0064
:100010000C948D000C948D000C948D000C948D002C
:100020000C948D000C94BC040C948D000C948D00E9
:100030000C948D000C948D000C948D000C948D000C
:100040000C94CB020C948D000C94EF070C94C90710
:100050000C948D000C948D000C948D000C948D00EC
:100060000C9415030C948D00B0047604800487046E
:10007000920494049B04A5040000000800020100FF
:100080000003040700000000000000000000000062
:10009000250028002B0000000000240027002A0073
:1000A000040404040404040402020202020203031E
:1000B0000303030301020408102040800102040826
:1000C00010200102040810206D0811241FBECFEF7C
:1000D000D8E0DEBFCDBF11E0A0E0B1E0EAE4FBE193
:1000E00002C005900D92AA34B107D9F722E0AAE424
:1000F000B1E001C01D92AD3CB207E1F710E0C5E6EA
:10010000D0E004C02197FE010E94FF0AC436D10747
:10011000C9F70E94A6080C94A30D0C9400003FB7E9
:10012000F8948091B5019091B601A091B701B0917A
:10013000B80126B5A89B05C02F3F19F00196A11D57
:10014000B11D3FBFBA2FA92F982F8827820F911D6D
:10015000A11DB11DBC01CD0142E0660F771F881FB4
:10016000991F4A95D1F7089585ED8093BC00809141
:10017000BC0084FDFCCF1092EB01089540918F01EB
:10018000262F30E0240F311D21323105DCF420917F
:10019000EB012430C9F4FC0180E090E0861758F4AC
:1001A00030918F012191DC01A359BE4FA30FB11DE6
:1001B0002C930196F3CF80918F01680F60938F018C
:1001C00080E0089581E0089582E008950895E09127
:1001D000BA018091B901E81730F4F0E0E35BFE4F1B
:1001E000808190E008958FEF9FEF08959091BA017C
:1001F0008091B901981750F4E92FF0E0E35BFE4FCE
:10020000208130E09F5F9093BA0102C02FEF3FEF53
:10021000C90108958091B90190E02091BA01821B33
:1002200091090895CF92DF92EF92FF920F931F935F
:10023000CF93DF937C01262F972F8A018091EC01C9
:10024000882391F0C62FD72F6E01C40ED51ECC1572
:10025000DD0571F06991D701ED91FC910190F0817C
:10026000E02DC7010995F3CF642F822F0E94BE00B5
:10027000C801DF91CF911F910F91FF90EF90DF9018
:10028000CF900895CF93DF931F92CDB7DEB76983E8
:100290002091EC012223D1F020910F02203240F076
:1002A00021E030E0FC013383228380E090E015C040
:1002B0008091ED01E82FF0E0E251FE4F99819083AB
:1002C0008F5F8093ED0180930F0205C061E0CE0146
:1002D00001960E94BE0081E090E00F90DF91CF91E7
:1002E0000895EF92FF920F931F93CF93DF931F9286
:1002F000CDB7DEB78C017B01FB01608169830E9471
:100300003C0D6981681719F0C8010E94440DC701AE
:100310000F90DF91CF911F910F91FF90EF90089573
:10032000EF92FF920F931F93CF93DF93CDB7DEB77A
:100330002E970FB6F894DEBF0FBECDBF80E192E0DE
:100340000E94F505181619060CF0DEC063E471E092
:10035000CE0101960E94890780E192E00E94D305B8
:100360008A3209F0C5C063E471E0CE0107960E94AD
:1003700089070E94110797FD1EC08A329105D9F0A6
:100380008D871E860B851C850F5F1F4FB801CE0120
:1003900007960E946207882361F32F8138858B8539
:1003A0009C85BE01635F7F4F820F931F0E94350DB6
:1003B0001C870B87DECF89819A81009779F06F8146
:1003C00078856115710541F04B815C812B853C85F9
:1003D0004217530708F091C00E94BC0B8F8198858B
:1003E0009A83898389859A859C838B838B859C8559
:1003F0009E838D8318861F821A8619861C861B860B
:100400008F8198850E94BC0B8D819E81892B61F024
:1004100069E271E089819A810E942C0D892B21F477
:100420008FE291E00E94FF068D819E81892BC1F0B1
:1004300067E371E089819A810E942C0D892B81F4F8
:10044000809100010E945707809102010E94570786
:10045000809101010E9457078DE391E00E94FF0601
:100460008D819E81892B09F443C064E471E0898108
:100470009A810E942C0D892BD9F50AE411E07801AC
:100480000E94110797FD08C0F70181937F01FDE4E9
:10049000EF16F1E0FF06A1F7F80181918F0180537B
:1004A0008A3030F5F1E00D341F07B1F780914A0131
:1004B0008093000160E071E080E090E00E947101B3
:1004C00080914B018093020162E071E081E090E055
:1004D0000E94710180914C018093010161E071E003
:1004E00082E090E00E9471018DE391E00E94FF069E
:1004F00089819A810E94BC0B21CF0E94350D8B858A
:100500009C859E838D837ACF2E960FB6F894DEBF9E
:100510000FBECDBFDF91CF911F910F91FF90EF9054
:1005200008958F929F92AF92BF92CF92DF92EF92F7
:10053000FF926B017C010E948F004B015C01C11492
:10054000D104E104F104F1F00E948F00DC01CB0141
:1005500088199909AA09BB09883E9340A105B105EC
:1005600070F321E0C21AD108E108F10888EE880E84
:1005700083E0981EA11CB11CC114D104E104F10454
:1005800019F7DDCFFF90EF90DF90CF90BF90AF9045
:100590009F908F9008951F920F920FB60F92112483
:1005A0002F933F938F939F93AF93BF938091C101FC
:1005B0009091C201A091C301B091C4013091B401E6
:1005C00023E0230F2D3720F40196A11DB11D05C096
:1005D00026E8230F0296A11DB11D2093B40180933C
:1005E000C1019093C201A093C301B093C401809153
:1005F000B5019091B601A091B701B091B8010196F3
:10060000A11DB11D8093B5019093B601A093B701D0
:10061000B093B801BF91AF919F918F913F912F916E
:100620000F900FBE0F901F9018951F920F920FB64C
:100630000F9211242F933F934F935F936F937F9368
:100640008F939F93AF93BF93EF93FF938091B900E4
:10065000887F803609F49CC068F5883209F45BC055
:1006600090F4803109F454C038F4882309F4F6C0BA
:10067000883009F44DC0F6C0883109F44CC080328E
:1006800009F45DC0EFC0803409F468C048F48033D9
:1006900009F455C0883309F0E5C08093E901D8C05A
:1006A000803509F44FC0883509F45DC0883409F0FD
:1006B000D9C0D6C0883909F4C7C0A8F4883709F46E
:1006C00067C038F4883609F463C0803709F460C025
:1006D000C9C0883809F4B8C0803909F45FC08038CF
:1006E00009F0C0C05BC0803B09F486C038F4803A92
:1006F00009F466C0883A09F47FC0B4C0803C09F4AC
:10070000A7C0883C09F4A4C0883B09F48AC0AAC0E9
:100710008091C60110C09091E8018091E70198177F
:1007200070F5E091E80181E08E0F8093E801F0E040
:10073000E953FE4F80818093BB0085EC86C0809397
:10074000E9018EC0E091E80181E08E0F8093E8011D
:100750008091BB00F0E0E953FE4F80839091E80167
:100760008091E7016EC0E091E80181E08E0F8093F7
:10077000E8018091BB00F0E0E953FE4F8083809157
:10078000EA0181116DC081E08093C50184EA61C0F6
:1007900083E08093EB011092B301CFCF8091B3013E
:1007A000803208F051C0E091B30181E08E0F809358
:1007B000B3018091BB00F0E0ED56FE4F8083BDCFCA
:1007C00085EC8093BC001092EB018091B3018032E4
:1007D00030F4E091B301F0E0ED56FE4F10826091ED
:1007E000B30170E0E0919101F091920183E991E011
:1007F00009951092B30136C084E08093EB0110920A
:10080000900110928F01E0918D01F0918E01099578
:1008100080918F01811105C081E080938F0110923A
:100820006D01E091900181E08E0F80939001F0E0E6
:10083000E359FE4F80818093BB009091900180919D
:100840008F01981708F479CF85E88093BC000AC01F
:1008500085EC8093BC001092EB0104C01092E9017A
:100860000E94B400FF91EF91BF91AF919F918F9142
:100870007F916F915F914F913F912F910F900FBE9C
:100880000F901F901895CF93DF93EB010E943C0DC2
:100890008883CE01DF91CF91089590917C00907F65
:1008A00090937C0090917C008F70982B90937C00AB
:1008B00080917A00806480937A0080917A0084FF2E
:1008C000FCCF609178007091790080E090E008950D
:1008D000082E000C990BAA0BBB0BFC01F097E8301B
:1008E000F105F0F5EC5CFF4F0C94FF0A61E08CE041
:1008F0000E94210860E087E00E94210860E02EC08D
:1009000061E087E00E94210860E082E02FC061E0A2
:1009100082E00E94210860E08CE00E94210860E0F3
:1009200087E028C060E012C060E087E00E942108F4
:1009300061E08CE010C060E082E00E94210861E08C
:1009400087E00E94210861E014C061E08CE00E9411
:10095000210861E087E00E94210861E082E00AC08E
:1009600060E082E00E94210860E087E00E942108A8
:1009700060E08CE00C9421081F920F920FB60F924A
:1009800011248F939F93AF93BF938091BB0190915C
:10099000BC01A091BD01B091BE010197A109B109AF
:1009A0008093BB019093BC01A093BD01B093BE01A5
:1009B0008091BB019091BC01A091BD01B091BE019D
:1009C000181619061A061B06BCF089E190E0A0E093
:1009D000B0E08093BB019093BC01A093BD01B093A4
:1009E000BE018091BF019091C0011816190624F430
:1009F0001092C0011092BF01BF91AF919F918F9152
:100A00000F900FBE0F901F901895CF9381E08093A9
:100A1000EC0188E680930E021092ED0110920F0215
:100A20008BE390E00E949D0680E00E94A2068091E8
:100A3000EB018111FCCF81E08093EB018093EA010F
:100A40009FEF9093E9011092E8018093E701809372
:100A5000C6018091C601806D8093C6018091C50159
:100A6000813061F41092C5018091C6018093BB0072
:100A70008091BC0083FDF8CF85EC01C085EE8093AA
:100A8000BC008091EB018130E1F38091E80182307C
:100A900018F48091E80101C082E0A7ECB1E02DE4F8
:100AA00031E0F9019E2F921B981718F49D919193B4
:100AB000F9CF1092BA018093B9018DEA92E00E94B9
:100AC000F600C82F8DEA92E00E94F60060E070E028
:100AD0007C2F862B972B092E000CAA0BBB0B8115A4
:100AE00020E19207A105B10534F0BC01CD017051A0
:100AF000810991090BC0B7FF07C0B095A0959095EB
:100B000081959F4FAF4FBF4FBC01CD01CF9108954D
:100B100090E0FC01EC54FF4F2491FC01E056FF4FA4
:100B20008491882399F090E0880F991FFC01EA5680
:100B3000FF4FA591B491FC01E457FF4F859194912B
:100B40008FB7F894EC91E22BEC938FBF0895089542
:100B5000CF92DF92EF92FF920F931F93CF93DF9389
:100B60006C017A018B01C0E0D0E0CE15DF0589F081
:100B7000D8016D918D01D601ED91FC910190F0812C
:100B8000E02DC6010995892B11F47E0102C0219642
:100B9000ECCFC701DF91CF911F910F91FF90EF90A4
:100BA000DF90CF900895FC01918D828D981761F0B0
:100BB000828DDF01A80FB11D5D968C91928D9F5F94
:100BC0009F73928F90E008958FEF9FEF0895FC013F
:100BD000918D828D981731F0828DE80FF11D858DF2
:100BE00090E008958FEF9FEF0895FC01918D228D85
:100BF000892F90E0805C9F4F821B91098F7399270A
:100C0000089580E192E00E94F50521E0892B09F426
:100C100020E0822F0895FC01848DDF01A80FB11D13
:100C2000A35ABF4F2C91848D90E001968F73992722
:100C3000848FA689B7892C93A089B1898C9180640F
:100C40008C93938D848D981306C00288F389E02DD0
:100C500080818F7D80830895EF92FF920F931F9381
:100C6000CF93DF93EC0181E0888F9B8D8C8D98135F
:100C700005C0E889F989808185FD24C0F62E0B8D99
:100C800010E00F5F1F4F0F731127E02E8C8DE812BD
:100C90000CC00FB607FCFACFE889F989808185FF7F
:100CA000F5CFCE010E940B06F1CF8B8DFE01E80F30
:100CB000F11DE35AFF4FF0820B8FEA89FB89808197
:100CC000806207C0EE89FF896083E889F9898081A5
:100CD0008064808381E090E0DF91CF911F910F913C
:100CE000FF90EF900895CF93DF93EC01888D8823D8
:100CF000C9F0EA89FB89808185FD05C0A889B98989
:100D00008C9186FD0FC00FB607FCF5CF808185FF63
:100D1000F2CFA889B9898C9185FFEDCFCE010E94D1
:100D20000B06E7CFDF91CF9108950E940106811154
:100D30000C94900108950E941E0D682F8DEA92E098
:100D40000C944201382F20910F0290910E02213213
:100D500008F049C08091EB018111FCCF42E0409343
:100D6000EB013093EA013FEF3093E9011092E80183
:100D70002093E701AEEEB1E047EC51E0FA013E2FDF
:100D8000341B321718F43D913193F9CF1092C601FC
:100D90002091C601990F922B9093C6019091C501A5
:100DA000913061F41092C5019091C6019093BB00FF
:100DB0009091BC0093FDF8CF95EC01C095EE909317
:100DC000BC009091EB019230E1F39091E9019F3FDB
:100DD00079F08091E901803241F08091E90180331E
:100DE00031F084E005C081E003C082E001C083E00F
:100DF0001092ED0110920F021092EC0108950097ED
:100E000069F0FC0101900020E9F73197AF01481B20
:100E1000590BBC0180E192E00C94A80580E090E0C1
:100E200008952FB7F8948091C1019091C201A091CB
:100E3000C301B091C4012FBF80931802909319028F
:100E4000A0931A02B0931B02E0911002F0911102DC
:100E50000680F781E02D80E192E0099597FF26C09A
:100E60002FB7F8948091C1019091C201A091C30164
:100E7000B091C4012FBF40911802509119026091A6
:100E80001A0270911B02841B950BA60BB70B4091A5
:100E90001402509115026091160270911702841786
:100EA0009507A607B70780F28FEF9FEF0895E091AF
:100EB0001002F09111020190F081E02D682F80E185
:100EC00092E009940F931F93CF93DF93EC018881F5
:100ED0009981009729F02A813B812617370788F4EA
:100EE0008B016F5F7F4F0E94540C009761F09983D4
:100EF00088831B830A832C813D81232B11F4FC0101
:100F0000108281E001C080E0DF91CF911F910F91AD
:100F10000895EF92FF920F931F93CF93DF93EC010D
:100F2000198218821B821A821D821C82611571052A
:100F300049F18B01FB0101900020E9F731977F0116
:100F4000E61AF70AB7010E946207288139818111E8
:100F50000DC02115310519F0C9010E94BC0B198281
:100F600018821D821C821B821A820CC0FD82EC82B8
:100F7000B801C901DF91CF911F910F91FF90EF90C0
:100F80000C94350DDF91CF911F910F91FF90EF9051
:100F900008951F920F920FB60F9211242F933F9333
:100FA0004F935F936F937F938F939F93AF93BF9371
:100FB000EF93FF9380E192E00E940B06FF91EF9187
:100FC000BF91AF919F918F917F916F915F914F9161
:100FD0003F912F910F900FBE0F901F9018951F9269
:100FE0000F920FB60F9211242F938F939F93EF932D
:100FF000FF93E0912002F09121028081E09126028E
:10100000F091270282FD12C09081809129028F5FAA
:101010008F7320912A02821751F0E0912902F0E0AB
:10102000E05FFD4F958F8093290201C08081FF9181
:10103000EF919F918F912F910F900FBE0F901F9066
:10104000189590E0FC01E858FF4F3491FC01EC54F6
:10105000FF4F2491FC01E056FF4FE491EE2309F489
:101060003BC0332339F1333091F038F43130A9F0FB
:10107000323001F584B58F7D12C0373091F03830B1
:10108000A1F03430B9F4809180008F7D03C080914D
:1010900080008F77809380000DC084B58F7784BDEA
:1010A00009C08091B0008F7703C08091B0008F7D20
:1010B0008093B000F0E0EE0FFF1FE457FF4FA591C3
:1010C000B4918FB7F894EC91611103C020952E2351
:1010D00001C02E2B2C938FBF0895E0E1F2E0138224
:1010E000128288EE93E0A0E0B0E084839583A6832B
:1010F000B7832DE031E03183208325EC30E0358764
:10110000248724EC30E03787268720EC30E0318BD1
:10111000208B21EC30E0338B228B22EC30E0358BBE
:10112000248B26EC30E0378B268B118E128E138E9B
:10113000148EEDEAF2E01382128284839583A683F3
:10114000B7838DE191E0918380830895CF93DF93FE
:10115000CDB7DEB72B970FB6F894DEBF0FBECDBF6D
:10116000789484B5826084BD84B5816084BD85B582
:10117000826085BD85B5816085BD80916E0081608E
:1011800080936E0010928100809181008260809334
:101190008100809181008160809381008091800036
:1011A0008160809380008091B10084608093B10061
:1011B0008091B00081608093B00080917A0084605B
:1011C00080937A0080917A00826080937A00809187
:1011D0007A00816080937A0080917A0080688093A1
:1011E0007A001092C100BE016F5F7F4F80E090E0F7
:1011F0000E944304BE016E5F7F4F81E090E00E9439
:101200004304BE016D5F7F4F82E090E00E94430483
:10121000FE01319681E3908190539A3008F08083EB
:1012200031968F5F8433B9F78981809300018A8179
:10123000809302018B81809301018CE00E948805DC
:1012400087E00E94880582E00E94880580917C00EA
:10125000806480937C0080917A00876880937A0014
:101260001092BA011092B9011092ED0110920F0282
:101270001092EB0111E01093EA011092C50161E0B8
:1012800082E10E94210861E083E10E9421088091AF
:10129000B9008E7F8093B9008091B9008D7F8093D3
:1012A000B90088E48093B80085E48093BC00109373
:1012B000EC0188E680930E021092ED0110920F026D
:1012C0008BE690E00E949D0680E090E00E949D06E3
:1012D00081E00E94A2061093EC011092ED011092A1
:1012E0000F028CE190E00E949D0680E090E00E9459
:1012F0009D0681E00E94A20664EF71E080E090E02C
:101300000E94910268EC70E080E090E00E949102FF
:101310000E9405056093C5027093C6028093C702C0
:101320009093C80280917000816080937000E0917A
:101330002002F091210282E08083E0911C02F09172
:101340001D021082E0911E02F0911F0280E1808355
:1013500010922802E0912402F091250286E0808319
:10136000E0912202F0912302808180618083E091EC
:101370002202F0912302808188608083E091220222
:10138000F0912302808180688083E0912202F091B5
:10139000230280818F7D808384E690E0A0E0B0E02E
:1013A0008093140290931502A0931602B093170233
:1013B000412C84E0582E612C712C93E0292E312C85
:1013C00002E010E02091C5023091C6024091C702B0
:1013D0005091C8022C833D834E835F8380E00E943E
:1013E0004D042FEF33E040E050E0261B370B480B55
:1013F000590BA0EDB7E00E94520DA30192010E948B
:10140000E00ACC80DD80EE80FF80C20ED31EE41E99
:10141000F51E38EEC30E33E0D31EE11CF11CC09262
:10142000C102D092C202E092C302F092C402809044
:10143000C5029090C602A090C702B090C80281E099
:101440000E944D042FEF33E040E050E0261B370BA5
:10145000480B590BA0EDB7E00E94520DA301920179
:101460000E94E00A820E931EA41EB51E8C0C9D1CC9
:10147000AE1CBF1C8092BD029092BE02A092BF0221
:10148000B092C00282E00E944D042FEF33E040E0B2
:1014900050E0261B370B480B590BA0EDB7E00E941C
:1014A000520DA30192010E94E00A8C819D81AE81C0
:1014B000BF81820F931FA41FB51F9C01AD01280D92
:1014C000391D4A1D5B1D2093B9023093BA02409327
:1014D000BB025093BC02288739874A875B870E94EA
:1014E0000505288539854A855B852617370748070E
:1014F000590784F43092C0012092BF0129E130E005
:1015000040E050E02093BB013093BC014093BD010B
:101510005093BE0186169706A806B9069CF5209141
:10152000BF013091C0012330310564F51093C00133
:101530000093BF0189E190E0A0E0B0E08093BB019F
:101540009093BC01A093BD01B093BE018091BF01F7
:101550009091C0018130910549F074F0823091057D
:1015600041F0039749F48091010107C08091000187
:1015700004C08091020101C080E30E9468040E94BF
:10158000950620CFC616D706E806F906FCF6809128
:10159000BF019091C0010297CCF6A1E0B0E0B093FA
:1015A000C001A093BF0129E130E040E050E020936A
:1015B000BB013093BC014093BD015093BE01C6CF27
:1015C000052E97FB1EF400940E94F70A57FD07D0E2
:1015D0000E94050B07FC03D04EF40C94F70A5095BB
:1015E0004095309521953F4F4F4F5F4F089590950F
:1015F0008095709561957F4F8F4F9F4F0895EE0FA7
:10160000FF1F0590F491E02D0994A1E21A2EAA1B68
:10161000BB1BFD010DC0AA1FBB1FEE1FFF1FA217A2
:10162000B307E407F50720F0A21BB30BE40BF50B9F
:10163000661F771F881F991F1A9469F76095709528
:10164000809590959B01AC01BD01CF010895CF938A
:10165000DF938230910510F482E090E0E091CB02BC
:10166000F091CC0220E030E0C0E0D0E0309711F102
:101670004081518148175907C0F04817590761F454
:1016800082819381209719F09B838A832BC090934A
:10169000CC028093CB0226C02115310519F04217E8
:1016A000530718F49A01BE01DF01EF010280F381B4
:1016B000E02DDCCF2115310509F1281B390B243031
:1016C000310590F412968D919C91139761157105D7
:1016D00021F0FB019383828304C09093CC0280931A
:1016E000CB02FD01329644C0FD01E20FF31F81934E
:1016F0009193225031092D933C933AC02091C90215
:101700003091CA02232B41F420910501309106014A
:101710003093CA022093C902209103013091040141
:101720002115310541F42DB73EB740910701509185
:101730000801241B350BE091C902F091CA02E2179F
:10174000F307A0F42E1B3F0B2817390778F0AC01E4
:101750004E5F5F4F2417350748F04E0F5F1F5093C1
:10176000CA024093C9028193919302C0E0E0F0E085
:10177000CF01DF91CF9108950F931F93CF93DF9304
:10178000009709F48CC0FC013297138212820091F9
:10179000CB021091CC020115110581F42081318119
:1017A000820F931F2091C9023091CA02281739076E
:1017B00079F5F093CA02E093C90271C0D80140E004
:1017C00050E0AE17BF0750F412962D913C9113973D
:1017D000AD012115310509F1D901F3CF9D01DA01E0
:1017E0003383228360817181860F971F821793074D
:1017F00069F4EC0128813981260F371F2E5F3F4F96
:10180000318320838A819B8193838283452B29F4B2
:10181000F093CC02E093CB0242C01396FC93EE937C
:101820001297ED01499159919E01240F351FE2173E
:10183000F30771F480819181840F951F02961196B0
:101840009C938E938281938113969C938E9312978F
:10185000E0E0F0E0D80112968D919C9113970097EB
:1018600019F0F8018C01F6CF8D919C9198012E5FB3
:101870003F4F820F931F2091C9023091CA0228174F
:10188000390769F4309729F41092CC021092CB02F8
:1018900002C0138212821093CA020093C902DF9120
:1018A000CF911F910F910895A0E0B0E0EAE5FCE030
:1018B0000C94610DEC01009721F4CB010E94270BE1
:1018C000B8C0FC01E60FF71F9C0122503109E21756
:1018D000F30708F4ACC0D9010D911C9111970617BC
:1018E0001707B0F00530110508F49FC0C801049730
:1018F0008617970708F499C002501109061B170BA9
:10190000019311936D937C93CF010E94BC0B8DC00A
:101910005B01A01AB10A4C01800E911EA091CB026E
:10192000B091CC0240E050E0E12CF12C109709F48A
:101930004AC0A815B905D1F56D907C901197630147
:1019400082E0C80ED11CCA14DB0480F1A3014A193D
:101950005B096A0182E0C80ED11C1296BC901297F6
:101960001396AC91B5E0CB16D10440F0B282A383BC
:1019700051834083D9016D937C930AC00E5F1F4F42
:10198000C301800F911FF90191838083EB2DFA2F02
:10199000E114F10431F0D7011396FC93EE93129702
:1019A00044C0F093CC02E093CB023FC08D919C9158
:1019B00011974817590708F4AC017D0112960D9054
:1019C000BC91A02DB3CF8091C9029091CA02881515
:1019D0009905E1F446175707C8F4809103019091E7
:1019E0000401009741F48DB79EB7409107015091D3
:1019F0000801841B950BE817F907C8F4F093CA0295
:101A0000E093C902F901718360830FC0CB010E948A
:101A1000270B7C01009759F0A801BE010E94230DFD
:101A2000CE010E94BC0BC70104C0CE0102C080E001
:101A300090E0CDB7DEB7EEE00C947D0D81E090E054
:101A4000F8940C94A30DFB01DC0102C001900D92EF
:101A500041505040D8F70895FB01DC018D91019071
:101A600080190110D9F3990B0895FB01DC01019055
:101A70000D920020E1F70895F999FECF92BD81BD46
:101A8000F89A992780B50895262FF999FECF1FBAA5
:101A900092BD81BD20BD0FB6F894FA9AF99A0FBE97
:101AA000019608950E94940DA59F900DB49F900DEE
:101AB000A49F800D911D112408952F923F924F9263
:101AC0005F926F927F928F929F92AF92BF92CF92CE
:101AD000DF92EF92FF920F931F93CF93DF93CDB7D7
:101AE000DEB7CA1BDB0B0FB6F894DEBF0FBECDBF4F
:101AF00009942A88398848885F846E847D848C8420
:101B00009B84AA84B984C884DF80EE80FD800C8128
:101B10001B81AA81B981CE0FD11D0FB6F894DEBF0B
:101B20000FBECDBFED010895A29FB001B39FC001CC
:101B3000A39F700D811D1124911DB29F700D811DF9
:0A1B40001124911D0895F894FFCFC1
:101B4A003133320000CD028000000000002C06A8CC
:101B5A0005F505D305E705730600000000420112EA
:101B6A00010A01F600E700E6004944454E54002AFE
:101B7A0043414A4F4E2A005752495445002A444F7E
:0A1B8A004E452A0052454144000078
:00000001FF
