:100000000C9465000C948D000C948D000C948D0064
:100010000C948D000C948D000C948D000C948D002C
:100020000C948D000C94E8070C948D000C948D00BA
:100030000C948D000C948D000C948D000C948D000C
:100040000C9470060C948D000C943E060C941806CB
:100050000C948D000C948D000C948D000C948D00EC
:100060000C94BA060C948D001A04E003EA03F10321
:10007000FC03FE0305040F04000000080002010059
:100080000003040700000000000000000000000062
:10009000250028002B0000000000240027002A0073
:1000A000040404040404040402020202020203031E
:1000B0000303030301020408102040800102040826
:1000C0001020010204081020310811241FBECFEFB8
:1000D000D8E0DEBFCDBF11E0A0E0B1E0E2E5FAE19B
:1000E00002C005900D92AA34B107D9F722E0AAE424
:1000F000B1E001C01D92AD3CB207E1F710E0C5E6EA
:10010000D0E004C02197FE010E94990AC436D107AD
:10011000C9F70E946A080C94270D0C940000382F30
:1001200020911F0290911E02213208F049C0809157
:10013000FB018111FCCF42E04093FB013093FA01B7
:100140003FEF3093F9011092F8012093F701AEEFE1
:10015000B1E047ED51E0FA013E2F341B321718F49D
:100160003D913193F9CF1092D6012091D601990F8C
:10017000922B9093D6019091D501913061F4109219
:10018000D5019091D6019093BB009091BC0093FD56
:10019000F8CF95EC01C095EE9093BC009091FB01D7
:1001A0009230E1F39091F9019F3F79F08091F9014C
:1001B000803241F08091F901803331F084E005C054
:1001C00081E003C082E001C083E01092FD01109243
:1001D0001F021092FC01089590E0FC01EC54FF4FC7
:1001E0002491FC01E056FF4F8491882399F090E020
:1001F000880F991FFC01EA56FF4FA591B491FC01AD
:10020000E457FF4F859194918FB7F894EC91E22BCE
:10021000EC938FBF08952FB7F8948091D1019091FE
:10022000D201A091D301B091D4012FBF80932802B5
:1002300090932902A0932A02B0932B02E09120020E
:10024000F09121020680F781E02D80E292E009958D
:1002500097FF26C02FB7F8948091D1019091D201D9
:10026000A091D301B091D4012FBF409128025091A9
:10027000290260912A0270912B02841B950BA60B18
:10028000B70B409124025091250260912602709193
:10029000270284179507A607B70780F28FEF9FEF15
:1002A0000895E0912002F09121020190F081E02D6B
:1002B000682F80E292E009940895CF92DF92EF9246
:1002C000FF920F931F93CF93DF936C017A018B0101
:1002D000C0E0D0E0CE15DF0589F0D8016D918D0129
:1002E000D601ED91FC910190F081E02DC6010995B8
:1002F000892B11F47E0102C02196ECCFC701DF915A
:10030000CF911F910F91FF90EF90DF90CF900895C4
:10031000FC01918D828D981761F0828DDF01A80F0D
:10032000B11D5D968C91928D9F5F9F73928F90E02F
:1003300008958FEF9FEF0895FC01918D828D98179E
:1003400031F0828DE80FF11D858D90E008958FEFDB
:100350009FEF0895FC01918D228D892F90E0805CA4
:100360009F4F821B91098F739927089580E292E035
:100370000E94AA0121E0892B09F420E0822F089530
:10038000FC01848DDF01A80FB11DA35ABF4F2C9132
:10039000848D90E001968F739927848FA689B78901
:1003A0002C93A089B1898C9180648C93938D848DDA
:1003B000981306C00288F389E02D80818F7D8083A9
:1003C0000895EF92FF920F931F93CF93DF93EC0169
:1003D00081E0888F9B8D8C8D981305C0E889F98901
:1003E000808185FD24C0F62E0B8D10E00F5F1F4F1E
:1003F0000F731127E02E8C8DE8120CC00FB607FC8E
:10040000FACFE889F989808185FFF5CFCE010E9476
:10041000C001F1CF8B8DFE01E80FF11DE35AFF4FB4
:10042000F0820B8FEA89FB898081806207C0EE89A8
:10043000FF896083E889F98980818064808381E015
:1004400090E0DF91CF911F910F91FF90EF90089571
:10045000CF93DF93EC01888D8823C9F0EA89FB896B
:10046000808185FD05C0A889B9898C9186FD0FC062
:100470000FB607FCF5CF808185FFF2CFA889B98937
:100480008C9185FFEDCFCE010E94C001E7CFDF91B7
:10049000CF91089590E0FC01E858FF4F3491FC01A2
:1004A000EC54FF4F2491FC01E056FF4FE491EE2302
:1004B00009F43BC0332339F1333091F038F4313053
:1004C000A9F0323001F584B58F7D12C0373091F03C
:1004D0003830A1F03430B9F4809180008F7D03C0B2
:1004E000809180008F77809380000DC084B58F77D6
:1004F00084BD09C08091B0008F7703C08091B000A7
:100500008F7D8093B000F0E0EE0FFF1FE457FF4FA8
:10051000A591B4918FB7F894EC91611103C0209527
:100520002E2301C02E2B2C938FBF08953FB7F89434
:100530008091B5019091B601A091B701B091B80139
:1005400026B5A89B05C02F3F19F00196A11DB11D2E
:100550003FBFBA2FA92F982F8827820F911DA11D69
:10056000B11DBC01CD0142E0660F771F881F991FA6
:100570004A95D1F708958F929F92AF92BF92CF92F2
:10058000DF92EF92FF926B017C010E9496024B0179
:100590005C01C114D104E104F104F1F00E9496025F
:1005A000DC01CB0188199909AA09BB09883E93404F
:1005B000A105B10570F321E0C21AD108E108F108E4
:1005C00088EE880E83E0981EA11CB11CC114D104D2
:1005D000E104F10419F7DDCFFF90EF90DF90CF90A9
:1005E000BF90AF909F908F90089585ED8093BC0051
:1005F0008091BC0084FDFCCF1092FB0108954091D6
:100600008F01262F30E0240F311D21323105DCF41B
:100610002091FB012430C9F4FC0180E090E08617B2
:1006200058F430918F012191DC01A359BE4FA30FE3
:10063000B11D2C930196F3CF80918F01680F6093C9
:100640008F0180E0089581E0089582E00895089583
:10065000E091BA018091B901E81730F4F0E0E35B72
:10066000FE4F808190E008958FEF9FEF0895909165
:10067000BA018091B901981750F4E92FF0E0E35BDB
:10068000FE4F208130E09F5F9093BA0102C02FEFB0
:100690003FEFC90108958091B90190E02091BA011E
:1006A000821B91090895CF92DF92EF92FF920F93F0
:1006B0001F93CF93DF937C01262F972F8A01809180
:1006C000FC01882391F0C62FD72F6E01C40ED51ED2
:1006D000CC15DD0571F06991D701ED91FC91019088
:1006E000F081E02DC7010995F3CF642F822F0E947E
:1006F000FF02C801DF91CF911F910F91FF90EF9002
:10070000DF90CF900895CF93DF931F92CDB7DEB7E0
:1007100069832091FC012223D1F020911F02203215
:1007200040F021E030E0FC013383228380E090E060
:1007300015C08091FD01E82FF0E0E250FE4F998155
:1007400090838F5F8093FD0180931F0205C061E05D
:10075000CE0101960E94FF0281E090E00F90DF91B0
:10076000CF910895682F8DEB92E00C9483039091C4
:100770007C00907F90937C0090917C008F70982BF0
:1007800090937C0080917A00806480937A008091BD
:100790007A0084FFFCCF609178007091790080E04E
:1007A00090E00895082E000C990BAA0BBB0BFC01DE
:1007B000F097E830F105F0F5EC5CFF4F0C94990AE6
:1007C00061E08CE00E944A0260E087E00E944A02F9
:1007D00060E02EC061E087E00E944A0260E082E0B3
:1007E0002FC061E082E00E944A0260E08CE00E943B
:1007F0004A0260E087E028C060E012C060E087E065
:100800000E944A0261E08CE010C060E082E00E9439
:100810004A0261E087E00E944A0261E014C061E0A0
:100820008CE00E944A0261E087E00E944A0261E097
:1008300082E00AC060E082E00E944A0260E087E055
:100840000E944A0260E08CE00C944A02009769F032
:10085000FC0101900020E9F73197AF01481B590BCB
:10086000BC0180E292E00C945D0180E090E008958C
:100870000E94B80C0F931F93CF93DF93EC018881F4
:100880009981009729F02A813B812617370788F440
:100890008B016F5F7F4F0E94EE0B009761F0998391
:1008A00088831B830A832C813D81232B11F4FC0157
:1008B000108281E001C080E0DF91CF911F910F9104
:1008C0000895EF92FF920F931F93CF93DF93EC0164
:1008D000198218821B821A821D821C826115710581
:1008E00049F18B01FB0101900020E9F731977F016D
:1008F000E61AF70AB7010E943A042881398181116A
:100900000DC02115310519F0C9010E94560B19823D
:1009100018821D821C821B821A820CC0FD82EC820E
:10092000B801C901DF91CF911F910F91FF90EF9016
:100930000C94CF0CDF91CF911F910F91FF90EF900E
:100940000895CF9381E08093FC0188E680931E0296
:100950001092FD0110921F028BE390E00E94B203FF
:1009600080E00E948F008091FB018111FCCF81E02B
:100970008093FB018093FA019FEF9093F90110920D
:10098000F8018093F7018093D6018091D601806DA4
:100990008093D6018091D501813061F41092D50108
:1009A0008091D6018093BB008091BC0083FDF8CF7D
:1009B00085EC01C085EE8093BC008091FB01813005
:1009C000E1F38091F801823018F48091F80101C0C0
:1009D00082E0A7EDB1E02DE431E0F9019E2F921BFA
:1009E000981718F49D919193F9CF1092BA018093C2
:1009F000B9018DEB92E00E943703C82F8DEB92E096
:100A00000E94370360E070E07C2F862B972B092E25
:100A1000000CAA0BBB0B811520E19207A105B105C3
:100A200034F0BC01CD017051810991090BC0B7FFB1
:100A300007C0B095A095909581959F4FAF4FBF4F40
:100A4000BC01CD01CF910895EF92FF920F931F93B8
:100A5000CF93DF93CDB7DEB72E970FB6F894DEBFF6
:100A60000FBECDBF80E292E00E94AA0118161906BF
:100A70000CF0CBC063E471E0CE0101960E946104EA
:100A800080E292E00E9488018A3209F0B2C063E4F9
:100A900071E0CE0107960E9461040E940B0197FD50
:100AA0001EC08A329105D9F08D871E860B851C8564
:100AB0000F5F1F4FB801CE0107960E943A048823AA
:100AC00061F32F8138858B859C85BE01635F7F4FE5
:100AD000820F931F0E94CF0C1C870B87DECF89816A
:100AE0009A81009779F06F8178856115710541F0E1
:100AF0004B815C812B853C854217530708F07EC0F3
:100B00000E94560B8F8198859A83898389859A855F
:100B10009C838B838B859C859E838D8318861F8207
:100B20001A8619861C861B868F8198850E94560B13
:100B30008D819E81892B61F069E271E089819A81C2
:100B40000E94C60C892B21F48FE291E00E942604BA
:100B50008D819E81892BC1F067E371E089819A8143
:100B60000E94C60C892B81F4809100010E945101E2
:100B7000809102010E945101809101010E94510166
:100B80008DE391E00E9426048D819E81892B89F15D
:100B900064E471E089819A810E94C60C892B49F531
:100BA0000AE411E078010E940B0197FD08C0F701EB
:100BB00081937F01FDE4EF16F1E0FF06A1F7F80154
:100BC00081918F0180538A30A0F4F1E00D341F072A
:100BD000B1F780914A018093000180914B0180938D
:100BE000020180914C01809301018DE391E00E940C
:100BF000260489819A810E94560B34CF0E94CF0C23
:100C00008B859C859E838D838DCF2E960FB6F89411
:100C1000DEBF0FBECDBFDF91CF911F910F91FF902F
:100C2000EF9008950E94B60181110C942405089557
:100C30001F920F920FB60F9211242F933F934F9351
:100C40005F936F937F938F939F93AF93BF93EF9334
:100C5000FF9380E292E00E94C001FF91EF91BF916B
:100C6000AF919F918F917F916F915F914F913F9144
:100C70002F910F900FBE0F901F9018951F920F92FB
:100C80000FB60F9211242F938F939F93EF93FF939F
:100C9000E0913002F09131028081E0913602F091D2
:100CA000370282FD12C09081809139028F5F8F736D
:100CB00020913A02821751F0E0913902F0E0E05EB3
:100CC000FD4F958F8093390201C08081FF91EF9194
:100CD0009F918F912F910F900FBE0F901F9018959D
:100CE0001F920F920FB60F9211242F933F938F9361
:100CF0009F93AF93BF938091D1019091D201A09126
:100D0000D301B091D4013091B40123E0230F2D37EA
:100D100020F40196A11DB11D05C026E8230F0296FF
:100D2000A11DB11D2093B4018093D1019093D201F4
:100D3000A093D301B093D4018091B5019091B601F5
:100D4000A091B701B091B8010196A11DB11D80938A
:100D5000B5019093B601A093B701B093B801BF91CC
:100D6000AF919F918F913F912F910F900FBE0F9058
:100D70001F9018951F920F920FB60F9211242F9368
:100D80003F934F935F936F937F938F939F93AF9313
:100D9000BF93EF93FF938091B900887F803609F469
:100DA0009CC068F5883209F45BC090F4803109F486
:100DB00054C038F4882309F4F6C0883009F44DC0D3
:100DC000F6C0883109F44CC0803209F45DC0EFC030
:100DD000803409F468C048F4803309F455C088337E
:100DE00009F0E5C08093F901D8C0803509F44FC0FF
:100DF000883509F45DC0883409F0D9C0D6C0883977
:100E000009F4C7C0A8F4883709F467C038F48836F5
:100E100009F463C0803709F460C0C9C0883809F498
:100E2000B8C0803909F45FC0803809F0C0C05BC029
:100E3000803B09F486C038F4803A09F466C0883AE9
:100E400009F47FC0B4C0803C09F4A7C0883C09F411
:100E5000A4C0883B09F48AC0AAC08091D60110C002
:100E60009091F8018091F701981770F5E091F801E1
:100E700081E08E0F8093F801F0E0E952FE4F80810F
:100E80008093BB0085EC86C08093F9018EC0E09111
:100E9000F80181E08E0F8093F8018091BB00F0E0B3
:100EA000E952FE4F80839091F8018091F7016EC066
:100EB000E091F80181E08E0F8093F8018091BB00F2
:100EC000F0E0E952FE4F80838091FA0181116DC0FC
:100ED00081E08093D50184EA61C083E08093FB01C7
:100EE0001092B301CFCF8091B301803208F051C08E
:100EF000E091B30181E08E0F8093B3018091BB003C
:100F0000F0E0ED56FE4F8083BDCF85EC8093BC00B2
:100F10001092FB018091B301803230F4E091B30173
:100F2000F0E0ED56FE4F10826091B30170E0E09169
:100F30009101F091920183E991E009951092B3013A
:100F400036C084E08093FB011092900110928F01D3
:100F5000E0918D01F0918E01099580918F018111B1
:100F600005C081E080938F0110926D01E0919001A6
:100F700081E08E0F80939001F0E0E359FE4F808175
:100F80008093BB009091900180918F01981708F495
:100F900079CF85E88093BC000AC085EC8093BC00C3
:100FA0001092FB0104C01092F9010E94F502FF911A
:100FB000EF91BF91AF919F918F917F916F915F91D1
:100FC0004F913F912F910F900FBE0F901F9018954A
:100FD0001F920F920FB60F9211248F939F93AF938E
:100FE000BF938091BB019091BC01A091BD01B091D4
:100FF000BE010197A109B1098093BB019093BC0187
:10100000A093BD01B093BE018091BB019091BC0142
:10101000A091BD01B091BE01181619061A061B0653
:10102000BCF089E190E0A0E0B0E08093BB01909338
:10103000BC01A093BD01B093BE018091BF0190910E
:10104000C0011816190624F41092C0011092BF01B5
:10105000BF91AF919F918F910F900FBE0F901F90F6
:101060001895E0E2F2E01382128288EE93E0A0E0AD
:10107000B0E084839583A683B7832DE031E031838C
:10108000208325EC30E03587248724EC30E0378757
:10109000268720EC30E0318B208B21EC30E0338B45
:1010A000228B22EC30E0358B248B26EC30E0378B22
:1010B000268B118E128E138E148EEDEBF2E01382BE
:1010C000128284839583A683B7838DE191E0918317
:1010D00080830895CF93DF93CDB7DEB728970FB6FF
:1010E000F894DEBF0FBECDBF789484B5826084BD16
:1010F00084B5816084BD85B5826085BD85B581601C
:1011000085BD80916E00816080936E001092810099
:101110008091810082608093810080918100816054
:101120008093810080918000816080938000809115
:10113000B10084608093B1008091B00081608093A1
:10114000B00080917A00846080937A0080917A0068
:10115000826080937A0080917A00816080937A0027
:1011600080917A00806880937A001092C1008CE0B0
:101170000E94EC0087E00E94EC0082E00E94EC00FC
:1011800080917C00806480937C0080917A008768E5
:1011900080937A001092BA011092B9011092FD0169
:1011A00010921F021092FB0111E01093FA011092AD
:1011B000D50161E082E10E944A0261E083E10E9480
:1011C0004A028091B9008E7F8093B9008091B90066
:1011D0008D7F8093B90088E48093B80085E4809384
:1011E000BC001093FC0188E680931E021092FD0162
:1011F00010921F028BE690E00E94B20380E090E024
:101200000E94B20381E00E948F001093FC011092B3
:10121000FD0110921F028CE190E00E94B20380E079
:1012200090E00E94B20381E00E948F0064EF71E0C1
:1012300080E090E00E94BB0268EC70E080E090E00B
:101240000E94BB020E94A1046093CD017093CE0165
:101250008093CF019093D001809170008160809342
:101260007000E0913002F091310282E08083E091E1
:101270002C02F0912D021082E0912E02F0912F02AB
:1012800080E1808310923802E0913402F0913502BF
:1012900086E08083E0913202F091330280818061A8
:1012A0008083E0913202F0913302808188608083F4
:1012B000E0913202F0913302808180688083E09176
:1012C0003202F091330280818F7D808384E690E04A
:1012D000A0E0B0E08093240290932502A093260220
:1012E000B0932702412C84E0582E612C712C03E02E
:1012F00010E022242394312C2091CD013091CE0195
:101300004091CF015091D00129833A834B835C8374
:1013100080E00E94B7032FEF33E040E050E0261B4F
:10132000370B480B590BA0EDB7E00E94D60CA30178
:1013300092010E947A0AC980DA80EB80FC80C20E9A
:10134000D31EE41EF51E38EEC30E33E0D31EE11C9F
:10135000F11CC092C901D092CA01E092CB01F09277
:10136000CC018090CD019090CE01A090CF01B090A3
:10137000D00181E00E94B7032FEF33E040E050E05E
:10138000261B370B480B590BA0EDB7E00E94D60C7B
:10139000A30192010E947A0A820E931EA41EB51E1A
:1013A0008C0C9D1CAE1CBF1C8092C5019092C60186
:1013B000A092C701B092C80182E00E94B7032FEF4C
:1013C00033E040E050E0261B370B480B590BA0EDF3
:1013D000B7E00E94D60CA30192010E947A0A89818B
:1013E0009A81AB81BC81820F931FA41FB51F9C0102
:1013F000AD01280D391D4A1D5B1D2093C10130939D
:10140000C2014093C3015093C4012D833E834F8397
:1014100058870E94A1042D813E814F81588526174F
:1014200037074807590784F41093C0010093BF01A0
:1014300029E130E040E050E02093BB013093BC0153
:101440004093BD015093BE0186169706A806B906C3
:10145000ACF52091BF013091C0012330310574F506
:1014600042E050E05093C0014093BF0189E190E019
:10147000A0E0B0E08093BB019093BC01A093BD01BC
:10148000B093BE018091BF019091C0018130910560
:1014900049F074F08230910541F0039749F480914E
:1014A000010107C08091000104C08091020101C0C8
:1014B00080E30E94D2030E9412061ECFC616D706F2
:1014C000E806F906FCF68091BF019091C0010297F1
:1014D000CCF63092C0012092BF0129E130E040E01B
:1014E00050E02093BB013093BC014093BD01509369
:1014F000BE01C8CF052E97FB1EF400940E94910AEE
:1015000057FD07D00E949F0A07FC03D04EF40C94AD
:10151000910A50954095309521953F4F4F4F5F4F21
:10152000089590958095709561957F4F8F4F9F4F4F
:101530000895EE0FFF1F0590F491E02D0994A1E2AC
:101540001A2EAA1BBB1BFD010DC0AA1FBB1FEE1F3D
:10155000FF1FA217B307E407F50720F0A21BB30B88
:10156000E40BF50B661F771F881F991F1A9469F704
:1015700060957095809590959B01AC01BD01CF0160
:101580000895CF93DF938230910510F482E090E0CC
:10159000E091CB02F091CC0220E030E0C0E0D0E05E
:1015A000309711F14081518148175907C0F0481711
:1015B000590761F482819381209719F09B838A8374
:1015C0002BC09093CC028093CB0226C0211531050D
:1015D00019F04217530718F49A01BE01DF01EF0119
:1015E0000280F381E02DDCCF2115310509F1281BA4
:1015F000390B2430310590F412968D919C911397FC
:101600006115710521F0FB019383828304C09093DF
:10161000CC028093CB02FD01329644C0FD01E20F63
:10162000F31F81939193225031092D933C933AC03B
:101630002091C9023091CA02232B41F42091050167
:10164000309106013093CA022093C9022091030110
:10165000309104012115310541F42DB73EB7409179
:10166000070150910801241B350BE091C902F0914C
:10167000CA02E217F307A0F42E1B3F0B2817390705
:1016800078F0AC014E5F5F4F2417350748F04E0FDE
:101690005F1F5093CA024093C9028193919302C085
:1016A000E0E0F0E0CF01DF91CF9108950F931F9319
:1016B000CF93DF93009709F48CC0FC01329713821B
:1016C00012820091CB021091CC020115110581F418
:1016D00020813181820F931F2091C9023091CA026B
:1016E0002817390779F5F093CA02E093C90271C04F
:1016F000D80140E050E0AE17BF0750F412962D918C
:101700003C911397AD012115310509F1D901F3CFB2
:101710009D01DA013383228360817181860F971FD7
:101720008217930769F4EC0128813981260F371F4E
:101730002E5F3F4F318320838A819B8193838283F5
:10174000452B29F4F093CC02E093CB0242C01396D0
:10175000FC93EE931297ED01499159919E01240F4C
:10176000351FE217F30771F480819181840F951F73
:10177000029611969C938E938281938113969C93EB
:101780008E931297E0E0F0E0D80112968D919C9133
:101790001397009719F0F8018C01F6CF8D919C9169
:1017A00098012E5F3F4F820F931F2091C902309105
:1017B000CA022817390769F4309729F41092CC022D
:1017C0001092CB0202C0138212821093CA020093BD
:1017D000C902DF91CF911F910F910895A0E0B0E071
:1017E000E4EFFBE00C94E50CEC01009721F4CB0155
:1017F0000E94C10AB8C0FC01E60FF71F9C012250ED
:101800003109E217F30708F4ACC0D9010D911C911E
:10181000119706171707B0F00530110508F49FC09F
:10182000C80104978617970708F499C00250110958
:10183000061B170B019311936D937C93CF010E94AC
:10184000560B8DC05B01A01AB10A4C01800E911E8F
:10185000A091CB02B091CC0240E050E0E12CF12C01
:10186000109709F44AC0A815B905D1F56D907C9080
:101870001197630182E0C80ED11CCA14DB0480F109
:10188000A3014A195B096A0182E0C80ED11C1296B5
:10189000BC9012971396AC91B5E0CB16D10440F0F2
:1018A000B282A38351834083D9016D937C930AC094
:1018B0000E5F1F4FC301800F911FF9019183808339
:1018C000EB2DFA2FE114F10431F0D7011396FC93BC
:1018D000EE93129744C0F093CC02E093CB023FC04A
:1018E0008D919C9111974817590708F4AC017D011F
:1018F00012960D90BC91A02DB3CF8091C90290910A
:10190000CA0288159905E1F446175707C8F4809173
:10191000030190910401009741F48DB79EB7409167
:10192000070150910801841B950BE817F907C8F4CB
:10193000F093CA02E093C902F901718360830FC07A
:10194000CB010E94C10A7C01009759F0A801BE0199
:101950000E94BD0CCE010E94560BC70104C0CE01EF
:1019600002C080E090E0CDB7DEB7EEE00C94010D50
:1019700081E090E0F8940C94270DFB01DC0102C09B
:1019800001900D9241505040D8F70895FB01DC01C1
:101990008D91019080190110D9F3990B0895FB01E5
:1019A000DC0101900D920020E1F708950E94180DCE
:1019B000A59F900DB49F900DA49F800D911D1124A3
:1019C00008952F923F924F925F926F927F928F92E3
:1019D0009F92AF92BF92CF92DF92EF92FF920F93BE
:1019E0001F93CF93DF93CDB7DEB7CA1BDB0B0FB6C8
:1019F000F894DEBF0FBECDBF09942A883988488885
:101A00005F846E847D848C849B84AA84B984C8841A
:101A1000DF80EE80FD800C811B81AA81B981CE0F11
:101A2000D11D0FB6F894DEBF0FBECDBFED010895F6
:101A3000A29FB001B39FC001A39F700D811D11240F
:101A4000911DB29F700D811D1124911D0895F89470
:021A5000FFCFC6
:101A52003133320000CD02800000000000E1015D60
:101A620001AA0188019C012802000000008303539F
:101A7200034B033703280327034944454E54002AE6
:101A820043414A4F4E2A005752495445002A444F77
:0A1A92004E452A0052454144000071
:00000001FF
